:020000040800F2
:10000000000002201D060008F5050008F70500089D
:10001000F9050008FB050008FD05000800000000C8
:10002000000000000000000000000000FF050008C4
:10003000010600080000000003060008050600088D
:100040006D0600086D0600086D0600086D060008C4
:100050006D0600086D0600086D0600086D060008B4
:100060006D0600086D0600086D0600086D060008A4
:100070006D0600086D0600086D0600086D06000894
:100080006D0600086D0600086D0600086D06000884
:100090006D0600086D0600086D0600086D06000874
:1000A0006D0600086D0600086D0600086D06000864
:1000B0006D0600086D0600086D0600086D06000854
:1000C0006D0600086D0600086D0600086D06000844
:1000D0006D0600086D0600086D0600086D06000834
:1000E0006D0600086D0600086D0600086D06000824
:1000F0006D0600086D0600086D0600086D06000814
:100100006D0600086D0600086D0600086D06000803
:100110006D0600086D0600086D0600086D060008F3
:100120006D0600086D0600086D0600086D060008E3
:100130006D0600086D0600086D0600086D060008D3
:100140006D0600086D0600086D0600086D060008C3
:100150006D0600086D0600086D0600086D060008B3
:100160006D0600086D0600086D0600086D060008A3
:100170006D0600086D0600086D060008000000000E
:080180006D0600086D06000881
:1001880010B5054C237833B9044B13B10448AFF3C9
:1001980000800123237010BD0C0000200000000027
:1001A800000F000808B5034B1BB103490348AFF320
:1001B800008008BD0000000010000020000F0008AB
:1001C80053B94AB9002908BF00281CBF4FF0FF31B6
:1001D8004FF0FF3000F06EB9ADF1080C6DE904CEB8
:1001E80000F006F8DDF804E0DDE9022304B070470A
:1001F8002DE9F047089D04468C46002B40F083808B
:100208008A42174647D9B2FA82F242B1C2F12000B7
:1002180024FA00F09140974040EA010C94404FEADC
:100228001748230CBCFBF8F61FFA87FE08FB16C11B
:1002380043EA014306FB0EF1994209D9FB1806F17E
:10024800FF3080F01981994240F21681023E3B440A
:100258005B1AA4B2B3FBF8F008FB103344EA03447A
:1002680000FB0EFEA64509D93C1900F1FF3380F0CA
:100278000581A64540F2028102383C4440EA064026
:10028800A4EB0E0400261DB1D4400023C5E90043A9
:100298003146BDE8F08702B9FFDEB2FA82F2002AE1
:1002A80050D1CB1B4FEA174E1FFA87F80126B3FB34
:1002B800FEFC210C0EFB1C3341EA034108FB0CF346
:1002C8008B4207D979180CF1FF3002D28B4200F229
:1002D800E9808446C91AA3B2B1FBFEF00EFB1011E7
:1002E80043EA014408FB00F8A04507D93C1900F18E
:1002F800FF3302D2A04500F2D9801846A4EB0804C7
:1003080040EA0C40BFE78B4209D9002D00F0B180CC
:100318000026C5E9000130463146BDE8F087B3FA4A
:1003280083F6002E4AD18B4202D3824200F2B88073
:10033800841A61EB030101208C46002DA8D0C5E981
:10034800004CA5E7C2F1200320FA03F6974001FA12
:1003580002F04FEA174ED9403043030CB1FBFEF6CA
:100368001FFA87F80EFB161143EA014306FB08F152
:10037800994204FA02F409D9FB1806F1FF3C80F00F
:100388008D80994240F28A80023E3B445B1A81B2DA
:10039800B3FBFEF00EFB103341EA034100FB08F308
:1003A8008B4207D9791800F1FF3C73D28B4271D97F
:1003B80002383944CB1A40EA064678E7C6F1200CE1
:1003C80003FA06F422FA0CF31C4320FA0CF701FA9C
:1003D80006F34FEA144E21FA0CF11F433B0CB1FB14
:1003E800FEF91FFA84F80EFB191143EA014109FBD3
:1003F80008FA8A4502FA06F200FA06F308D96118E3
:1004080009F1FF3048D28A4546D9A9F102092144A9
:10041800A1EB0A01BFB2B1FBFEF00EFB101147EAD7
:10042800014700FB08F8B84507D9E71900F1FF3183
:100438002ED2B8452CD90238274440EA0940A7EB08
:100448000807A0FB02894F45C64649461AD317D06C
:100458005DB1B3EB0E0267EB010707FA0CFCF24043
:100468004CEA0202F740C5E9002700263146BDE8FC
:10047800F0872E4628460BE70646E9E61846FDE6CD
:100488004345E5D2B8EB020E69EB04010138DFE71A
:100498000846D2E760468DE78146B9E7664675E7C4
:1004A80030464AE7ACF1020C394413E702383C44C1
:1004B80024E700BF704700BF00B595B02C2200218B
:1004C80009A800F011FD1422002103A800F00CFD7A
:1004D8000023194A0193116C41F080511164126C88
:1004E80002F080520192019A144A0293116841F471
:1004F8008041116012680E9302F480420292029ABF
:100508000222089201201022CDE90B0208A800F06F
:1005180051FA014608B172B6FEE70F23CDE9033060
:10052800CDE90500079003A800F01EFC08B172B6DB
:10053800FEE715B05DF804FB00380240007000408B
:100548007FB500F0B5F8FFF7B7FF1422002101A826
:1005580000F0CAFC0024154B00941A6B144842F0B2
:1005680010021A631B6B03F01003224600934FF42A
:100578008061009B00F010FA4FF4806201230C4860
:1005880001A9CDE90344CDE9012300F02BF904F1D9
:10059800804404F5043420464FF4806100F001FAE9
:1005A8004FF4FA6000F0B0F8F5E700BF00380240F9
:1005B8000010024082B00C4B002100915A6C42F4AA
:1005C80080425A645A6C02F480420092009A019167
:1005D8001A6C42F080521A641B6C03F0805301932A
:1005E800019B02B0704700BF00380240FEE7FEE7FB
:1005F800FEE7FEE7FEE770477047704700F072B805
:10060800034AD2F8883043F47003C2F88830704740
:1006180000ED00E0DFF834D00D480E490E4A002303
:1006280002E0D458C4500433C4188C42F9D30B4A9E
:100638000B4C002301E013600432A242FBD3FFF706
:10064800DFFF00F02DFCFFF77BFF70470000022062
:10065800000000200C000020380F00080C000020CB
:100668002C000020FEE7000038B50E4A0E4B054668
:1006780018784FF47A73B3FBF0F31068B0FBF3F01B
:1006880000F09AF8044658B90F2D09D802462946B1
:100698004FF0FF3000F05EF8044B20461D6038BD77
:1006A8000120FCE7000000200400002008000020D2
:1006B80008B50B4B1A6842F400721A601A6842F4C3
:1006C80080621A601A6842F480721A60032000F08F
:1006D8002FF80F20FFF7C8FFFFF76CFF002008BDB9
:1006E800003C0240034A044B11681B780B4413601A
:1006F800704700BF2800002004000020014B186844
:10070800704700BF2800002038B50446FFF7F6FF01
:10071800631C1CBF054B1B78054618BFE418FFF780
:10072800EDFF431BA342FAD338BD00BF04000020ED
:100738000749CA6822F4E0620302120403F4E06382
:10074800120C134343F0BF6343F40033CB6070478C
:1007580000ED00E0164B30B5DC68C4F30224C4F1A8
:100768000705231D042D28BF0425062B4FF0FF3352
:100778008CBF033C002403FA05F521EA0501A340D8
:1007880022EA0302A140002841EA0203ACBF00F1BB
:100798006040084A4FEA0313B8BF00F00F00DBB20D
:1007A800AABF00F56140135480F8003330BD00BF84
:1007B80000ED00E014ED00E00138B0F1807F0AD2CE
:1007C800064B074A5860F02182F8231000200722C0
:1007D80098601A6070470120704700BF10E000E081
:1007E80000ED00E02DE9F74FDFF8A891674A0023F4
:1007F8000D6801249C4004EA050CAC4340F0B1802C
:100808004D6805F003044FEA43080326671E06FAFD
:1008180008F6012F6FEA060634D8876807EA060E3D
:10082800CF6807FA08F747EA0E078760476827EA9C
:100838000C0EC5F300179F4047EA0E074760C768CC
:1008480007EA060E8F6807FA08F747EA0E07022C30
:10085800C76019D14FEAD30A00EB8A0A03F0070BE5
:10086800DAF820704FEA8B0B4FF00F0E0EFA0BFEE2
:1008780027EA0E0E0F6907FA0BF747EA0E07CAF8C0
:10088800207001E0032CDAD1076804FA08F43E402E
:10089800264315F4403F066063D04FF0000ACDF8B8
:1008A80004A0D9F844603A4C46F48046C9F844603C
:1008B800D9F8446006F480460196019E23F00306A9
:1008C80006F1804606F59C3603F0030ED6F808803C
:1008D8004FEA8E0E0F2707FA0EF7A04228EA0707FD
:1008E80046D004F58064A04244D004F58064A04258
:1008F80042D004F58064A04240D004F58064A04250
:100908003ED004F58064A0423CD004F58064A04247
:100918003AD004F58064A0420CBF0724082404FAE6
:100928000EF43C43B46014686FEA0C06EF0354BF3E
:1009380034404CEA040414605468AF0354BF344094
:100948004CEA040454609468EF0254BF34404CEA03
:1009580004049460D468AD0254BF34404CEA0404E3
:10096800D4600133102B7FF443AF03B0BDE8F08FA0
:100978005446D4E70124D2E70224D0E70324CEE783
:100988000424CCE70524CAE70624C8E7003C014054
:1009980000000240003802400AB181617047090432
:1009A800FBE7436901EA030221EA030141EA024144
:1009B800816170472DE9F341044640B30368DD07C0
:1009C80010D4236898075ED423681A0700F1A08022
:1009D80023685B0700F1BE80A069002840F01F81F2
:1009E80000202BE0A64B9A6802F00C02042A07D0DC
:1009F8009A6802F00C02082A0BD15A68510208D5ED
:100A08009F4B1B689A03DCD56368002BD9D1012062
:100A180014E06268B2F5803F13D11A6842F480325C
:100A28001A60FFF76BFE964E054633689B03C8D4E1
:100A3800FFF764FE401B6428F7D9032002B0BDE825
:100A4800F0818F4DB2F5A02F2B6807D143F4802396
:100A58002B602B6843F480332B60E2E723F4803368
:100A68002B602B6823F480232B60002AD9D1FFF751
:100A780045FE06462B689F03A3D5FFF73FFE801B64
:100A88006428F7D9D9E77E4B9A6812F00C0F07D083
:100A98009A6802F00C02082A11D15B685E020ED433
:100AA800774B1A68950702D5E268012AAFD11A6810
:100AB800216922F0F80242EAC1021A6084E7E2687A
:100AC800704BB2B101221A60FFF718FE6C4D064652
:100AD8002B68980707D52B68226923F0F80343EAA7
:100AE800C2032B6070E7FFF709FE801B0228EFD9CD
:100AF800A3E71A60FFF702FE614E054633689907BF
:100B08007FF562AFFFF7FAFD401B0228F6D994E79C
:100B180062695D4B7AB101221A60FFF7EFFD584E0A
:100B28000546736F9F073FF553AFFFF7E7FD401B7F
:100B38000228F6D981E71A60FFF7E0FD504E054616
:100B4800736F98077FF544AFFFF7D8FD401B022865
:100B5800F6D972E74A4B1A6C12F0805228D10192EA
:100B68001A6C42F080521A641B6C03F08053019394
:100B7800019B0127454D2B68D9051BD5A368404D1E
:100B8800012B27D12B6F43F001032B67FFF7B6FD2D
:100B98003B4E054641F28838336F9B0739D5002F05
:100BA8003FF41AAF364A136C23F08053136413E7EB
:100BB8000027DFE72B6843F480732B60FFF79EFD67
:100BC80006462B68DA05D9D4FFF798FD801B022862
:100BD800F7D932E7052B04D12B6F43F004032B67B9
:100BE800D0E72A6F22F001022A672A6F22F0040256
:100BF8002A67002BCAD1FFF781FD41F288380646E3
:100C08002B6F9807CBD5FFF779FD801B4045F7D9A7
:100C180013E7FFF773FD401B4045BDD90DE7184D9D
:100C2800AB6803F00C03082B47D0194E00230228A9
:100C3800336035D1FFF762FD07462B68990129D447
:100C4800D4E907321343626A43EA8213E26A43EA49
:100C58000263A26A5208013A43EA02436B60012325
:100C68003360FFF74BFD064D04462B689A013FF5AC
:100C7800B7AEFFF743FD001B0228F6D9DDE600BF3B
:100C88000038024000004742800E47420070004092
:100C980060004742FFF732FDC01B0228CDD9CCE6E1
:100CA800FFF72CFD04462B689B017FF599AEFFF7F3
:100CB80025FD001B0228F6D9BFE601283FF4BEAE89
:100CC8006B68E26903F4800191427FF4A0AE216A67
:100CD80003F03F028A427FF49AAE616A47F6C07217
:100CE8001A40B2EB811F7FF492AEA26A520803F455
:100CF8004031013AB1EB024F7FF489AEE26A03F06A
:100D08007063B3EB026F3FF46BAE80E6134908B52E
:100D18008B6803F00C03042B1CD0082B1CD14A68E9
:100D28004B68496813F4800314BF0D480D48C1F39C
:100D3800881118BF002302F03F02A1FB0001FFF752
:100D48003FFA064B5B68C3F3014301335B00B0FB1A
:100D5800F3F008BD0248FCE70248FAE70038024011
:100D680040787D010024F4002DE9F0410D46044649
:100D780010B90120BDE8F081444B1A6802F007025F
:100D88008A4228D3226897072DD4D00741D43F4BF5
:100D98001A6802F00702AA4266D8226851076CD482
:100DA800130707D53A4A2169936823F4604343EA55
:100DB800C1039360FFF7AAFF354B364A9B68C3F31C
:100DC8000313D35CD840344B1860344B1868FFF7D2
:100DD8004BFC0020CEE7CAB21A701B6803F0070369
:100DE8008B42C6D1CEE72A4B12F0040F1EBF99687A
:100DF80041F4E0519960160742BF996841F4604197
:100E080099602349A0688B6823F0F00303438B6043
:100E1800BBE762681E4B012A1CD11B6813F4003F14
:100E2800A7D01B4EB36823F003031343B360FFF747
:100E380065FC41F288380746B368626803F00C0322
:100E4800B3EB820FA3D0FFF759FCC01B4045F3D981
:100E580003208FE7911E01291B6802D813F0007F39
:100E6800DEE713F0020FDBE7EAB21A701B6803F043
:100E78000703AB427FF47DAF8FE70549E0688B68D5
:100E880023F4E05303438B608AE700BF003C024031
:100E980000380240180F0008000000200800002059
:100EA80070B50D4D0D4C641BA4100026A64209D147
:100EB8000B4D0C4C00F020F8641BA4100026A64231
:100EC80005D170BD55F8043B98470136EEE755F853
:100ED800043B98470136F2E7300F0008300F00084E
:100EE800300F0008340F000802440346934200D133
:100EF800704703F8011BF9E7F8B500BFF8BC08BC58
:100F08009E467047F8B500BFF8BC08BC9E467047BF
:100F180000000000000000000102030406070809A1
:080F2800D0F2FF7F0100000080
:040F3000AD01000807
:040F34008901000827
:0C0F38000024F400010000001000000084
:040000050800061DCC
:00000001FF
