:020000040800F2
:1000000000000220C50A00084D0A00084F0A000837
:10001000510A0008530A0008550A000800000000B1
:100020000000000000000000000000008130000817
:10003000570A00080000000011310008590A0008A2
:10004000150B0008150B0008150B0008150B000810
:10005000150B0008150B0008150B0008150B000800
:10006000150B0008150B0008150B0008150B0008F0
:10007000150B0008150B0008150B0008150B0008E0
:10008000150B0008150B0008150B0008150B0008D0
:10009000150B0008150B0008150B0008150B0008C0
:1000A000150B0008150B0008150B0008150B0008B0
:1000B000150B0008150B0008150B0008150B0008A0
:1000C000150B0008150B0008150B0008150B000890
:1000D000150B0008150B0008150B0008150B000880
:1000E000150B0008150B0008150B0008150B000870
:1000F000150B0008150B0008150B0008150B000860
:10010000150B0008150B0008150B0008150B00084F
:10011000150B0008150B0008150B0008150B00083F
:10012000150B0008150B0008150B0008150B00082F
:10013000150B0008150B0008150B0008150B00081F
:10014000150B0008150B0008150B0008150B00080F
:10015000150B0008150B0008150B0008150B0008FF
:10016000150B0008150B0008150B0008150B0008EF
:10017000150B0008150B0008150B00080000000007
:08018000150B0008150B000827
:1001900010B5054C237833B9044B13B10448AFF3C1
:1001A00000800123237010BD7400002000000000B7
:1001B0004441000808B5034B1BB103490348AFF3A2
:1001C000008008BD000000007800002044410008C5
:1001D00001F0FF01102A2BDB10F0070F08D010F8F8
:1001E000013B013A8B422DD010F0070F42B3F6D1FC
:1001F000F0B441EA012141EA014122F007047FF015
:1002000000070023F0E80256083C85EA010586EA6B
:10021000010685FA47F5A3FA87F586FA47F6A5FAA7
:1002200087F68EB9EED1F0BC01F0FF0102F00702B3
:1002300032B110F8013B013A83EA010313B1F8D15E
:100240000020704701387047002D06BF354603383F
:10025000073815F0010F07D1013015F4807F02BF78
:10026000013015F4C03F0130F0BC0138704700BFC9
:1002700053B94AB9002908BF00281CBF4FF0FF310D
:100280004FF0FF3000F074B9ADF1080C6DE904CE09
:1002900000F006F8DDF804E0DDE9022304B0704761
:1002A0002DE9F047089D04468E46002B4DD18A4229
:1002B000944669D9B2FA82F252B101FA02F3C2F15C
:1002C000200120FA01F10CFA02FC41EA030E9440ED
:1002D0004FEA1C48210CBEFBF8F61FFA8CF708FB0E
:1002E00016E341EA034306FB07F199420AD91CEBE6
:1002F000030306F1FF3080F01F81994240F21C8118
:10030000023E63445B1AA4B2B3FBF8F008FB10335F
:1003100044EA034400FB07F7A7420AD91CEB040494
:1003200000F1FF3380F00A81A74240F20781644464
:10033000023840EA0640E41B00261DB1D4400023E9
:10034000C5E900433146BDE8F0878B4209D9002D4D
:1003500000F0EF800026C5E9000130463146BDE8D7
:10036000F087B3FA83F6002E4AD18B4202D3824241
:1003700000F2F980841A61EB030301209E46002DF0
:10038000E0D0C5E9004EDDE702B9FFDEB2FA82F245
:10039000002A40F09280A1EB0C014FEA1C471FFAA3
:1003A0008CFE0126200CB1FBF7F307FB131140EA8A
:1003B00001410EFB03F0884208D91CEB010103F157
:1003C000FF3802D2884200F2CB804346091AA4B219
:1003D000B1FBF7F007FB101144EA01440EFB00FEED
:1003E000A64508D91CEB040400F1FF3102D2A64552
:1003F00000F2BB800846A4EB0E0440EA03409CE7F1
:10040000C6F12007B34022FA07FC4CEA030C20FA9D
:1004100007F401FA06F31C43F9404FEA1C4900FABD
:1004200006F3B1FBF9F8200C1FFA8CFE09FB18113A
:1004300040EA014108FB0EF0884202FA06F20BD9AD
:100440001CEB010108F1FF3A80F08880884240F2FD
:100450008580A8F102086144091AA4B2B1FBF9F041
:1004600009FB101144EA014100FB0EFE8E4508D93C
:100470001CEB010100F1FF346CD28E456AD90238C1
:10048000614440EA0840A0FB0294A1EB0E01A142A6
:10049000C846A64656D353D05DB1B3EB080261EB14
:1004A0000E0101FA07F722FA06F3F1401F43C5E9EE
:1004B000007100263146BDE8F087C2F12003D84024
:1004C0000CFA02FC21FA03F3914001434FEA1C4766
:1004D0001FFA8CFEB3FBF7F007FB10360B0C43EA58
:1004E000064300FB0EF69E4204FA02F408D91CEB08
:1004F000030300F1FF382FD29E422DD90238634406
:100500009B1B89B2B3FBF7F607FB163341EA0341A5
:1005100006FB0EF38B4208D91CEB010106F1FF38F4
:1005200016D28B4214D9023E6144C91A46EA0046EB
:1005300038E72E46284605E70646E3E61846F8E67D
:100540004B45A9D2B9EB020864EB0C0E0138A3E7C6
:100550004646EAE7204694E74046D1E7D0467BE7A7
:10056000023B614432E7304609E76444023842E71F
:10057000704700BF08B5054C20464FF4806100F07D
:1005800066FC4FF47A7001F02EFBF5E70010024094
:1005900008B5012001F027FBFBE700007FB50B4AFF
:1005A0001068516801AB03C3906818600023CDE95F
:1005B00004330A21084601AA03F07CF802F0DEFFAA
:1005C0004FF47A7001F00FFBF3E700BF5C410008C5
:1005D000F0B52548254D244E87B0002101F028FABA
:1005E000002401220421284600F02CFC00220821CE
:1005F000284600F027FC013433681D49A4B25C632F
:10060000224601A803F03EF901AA14210A2003F0B2
:1006100051F80A2001F0E7FAB4F57A6FE1D1144FEE
:1006200040F69F7400220421284600F00BFC0122B2
:100630000821284600F006FC336822465C633946F0
:1006400001A803F01FF901AA14210A2003F032F8CF
:100650000A2001F0C8FA013CE4D24FF47A7001F0AC
:10066000C2FA0024BDE700BFE00000200000024005
:100670007041000800B595B02C22002109A803F0B4
:10068000F9F81422002103A803F0F4F80023194A12
:100690000193116C41F080511164126C02F0805290
:1006A0000192019A144A0293116841F48041116049
:1006B00012680E9302F480420292029A0222089279
:1006C00001201022CDE90B0208A800F0E5FB01464D
:1006D00008B172B6FEE70F23CDE90330CDE905007E
:1006E000079003A800F0B6FD08B172B6FEE715B09A
:1006F0005DF804FB003802400070004000B59BB07C
:1007000000F02EFAFFF7B6FF1422002111A803F023
:10071000B1F80024784B01941A6B7848784D42F078
:1007200010021A631A6B02F010020192019A0294ED
:100730001A6B42F001021A631A6B02F00102029274
:10074000029A03941A6B42F004021A631B6B03F0C3
:100750000403039322464FF4BC61039B00F072FB39
:10076000224668480C2100F06DFB01264FF4BC6363
:10077000624811A9CDE91136CDE9134400F088FA99
:100780000423CDE911365F481394022311A9149371
:1007900000F07EFA08235B4811A9CDE91136CDE9B6
:1007A000134400F075FA1022214606A803F062F8FF
:1007B0001C2221460AA8CDE9044403F05BF820225C
:1007C000214611A803F056F84F4BAC60C5E9003440
:1007D000284641F61F43C5E90334C5E9054400F046
:1007E000CBFE08B172B6FEE74FF4805306A9284647
:1007F000069301F00BF808B172B6FEE7284600F048
:10080000E7FE08B172B6FEE7CDE9040004A9284668
:1008100001F010F9024608B172B6FEE76023CDE997
:100820000A30CDE90C00CDE90E0010900AA9284647
:1008300000F086FF08B172B6FEE7CDE91100CDE900
:10084000130015904FF40053189011A928461693E1
:1008500001F02EF9044608B172B6FEE72B4D0146B1
:100860001C2212A803F006F84FF08043C5E90034BB
:100870004FF0FF33C5E903340323119311A90A2371
:100880002846CDE90A44AC60AC61139615931796DF
:10089000199300F0C9FE08B172B6FEE7CDE90A006F
:1008A0000AA9284601F0C6F8044608B172B6FEE768
:1008B00002F020FF01F022F9154A1648214601F006
:1008C00049F9154B154A18602146154801F042F9BF
:1008D000144B154A18602146144801F03BF9144B9B
:1008E000144A18602146144801F034F9134B18607B
:1008F00001F016F9FEE700BF003802400010024088
:10090000E0000020000002400004014098000020A8
:10091000A841000875050008900000201442000856
:100920009D0500082C010020F0410008D1050008B9
:1009300028010020CC410008910500089400002007
:1009400082B00E4B00220092596C41F480415964F0
:10095000596C01F48041009100990192196C41F0A9
:10096000805119641B6C03F080530193019B0F218C
:100970006FF0010002B000F045B900BF003802403E
:1009800010B5044688B01422002103A802F072FFBB
:100990002368B3F1804F20D103F50E33002101917C
:1009A0001A6C0F4842F001021A641A6C02F001023C
:1009B0000192019A02911A6B42F001021A631B6BB9
:1009C00003F001030293029B03220223CDE90323D8
:1009D00003A90123079300F05BF908B010BD00BF25
:1009E0000000024010B5044688B01422002103A87C
:1009F00002F040FF2268134B9A4220D103F59A334C
:100A0000002101915A6C104842F002025A645A6C5B
:100A100002F002020192019A02911A6B42F0040262
:100A20001A631B6B03F004030293029B4022022310
:100A3000CDE9032303A90323079300F029F908B0A4
:100A400010BD00BF0004014000080240FEE7FEE7C1
:100A5000FEE7FEE7FEE7704708B500F09BF802F0FE
:100A60007BF8012803D0BDE8084002F083BB08BD35
:100A70000B4A116810B5034609B90A49116010689C
:100A800009490A4C0344091B8B4206D902F0BAFEFD
:100A90000C2303604FF0FF3010BD1360FCE700BF74
:100AA00030010020984E00200000022000040000C9
:100AB000034AD2F8883043F47003C2F88830704794
:100AC00000ED00E0DFF834D00D480E490E4A002357
:100AD00002E0D458C4500433C4188C42F9D30B4AF2
:100AE0000B4C002301E013600432A242FBD3FFF75A
:100AF000DFFF02F08DFEFFF701FE704700000220CD
:100B00000000002074000020044D00087400002044
:100B1000944E0020FEE7000038B50E4A0E4B054605
:100B200018784FF47A73B3FBF0F31068B0FBF3F06E
:100B300000F09AF8044658B90F2D09D80246294604
:100B40004FF0FF3000F05EF8044B20461D6038BDCA
:100B50000120FCE700000020040000200800002025
:100B600008B50B4B1A6842F400721A601A6842F416
:100B700080621A601A6842F480721A60032000F0E2
:100B80002FF80F20FFF7C8FFFFF7DAFE002008BD9F
:100B9000003C0240034A044B11681B780B4413606D
:100BA000704700BF3401002004000020014B18688A
:100BB000704700BF3401002038B50446FFF7F6FF48
:100BC000631C1CBF054B1B78054618BFE418FFF7D4
:100BD000EDFF431BA342FAD338BD00BF0400002041
:100BE0000749CA6822F4E0620302120403F4E063D6
:100BF000120C134343F0BF6343F40033CB607047E0
:100C000000ED00E0164B30B5DC68C4F30224C4F1FB
:100C10000705231D042D28BF0425062B4FF0FF33A5
:100C20008CBF033C002403FA05F521EA0501A3402B
:100C300022EA0302A140002841EA0203ACBF00F10E
:100C40006040084A4FEA0313B8BF00F00F00DBB260
:100C5000AABF00F56140135480F8003330BD00BFD7
:100C600000ED00E014ED00E00138B0F1807F0BD220
:100C70004FF0E023054A5861F02182F8231000204C
:100C8000072298611A6170470120704700ED00E06B
:100C90002DE9F74FDFF8A891674A00230D6801247A
:100CA0009C4004EA050CAC4340F0B1804D6805F06F
:100CB00003044FEA43080326671E06FA08F6012FCD
:100CC0006FEA060634D8876807EA060ECF6807FA87
:100CD00008F747EA0E078760476827EA0C0EC5F356
:100CE00000179F4047EA0E074760C76807EA060EED
:100CF0008F6807FA08F747EA0E07022CC76019D178
:100D00004FEAD30A00EB8A0A03F0070BDAF82070E7
:100D10004FEA8B0B4FF00F0E0EFA0BFE27EA0E0E6A
:100D20000F6907FA0BF747EA0E07CAF8207001E0CF
:100D3000032CDAD1076804FA08F43E40264315F480
:100D4000403F066063D04FF0000ACDF804A0D9F808
:100D500044603A4C46F48046C9F84460D9F844608F
:100D600006F480460196019E23F0030606F18046B4
:100D700006F59C3603F0030ED6F808804FEA8E0E77
:100D80000F2707FA0EF7A04228EA070746D004F516
:100D90008064A04244D004F58064A04242D004F5AF
:100DA0008064A04240D004F58064A0423ED004F5A7
:100DB0008064A0423CD004F58064A0423AD004F59F
:100DC0008064A0420CBF0724082404FA0EF43C43BC
:100DD000B46094686FEA0C06EF0254BF34404CEAEA
:100DE00004049460D468AF0254BF34404CEA040455
:100DF000D4605468AF0354BF34404CEA04045460D8
:100E00001468ED0354BF34404CEA04041460013309
:100E1000102B7FF443AF03B0BDE8F08F5446D4E706
:100E20000124D2E70224D0E70324CEE70424CCE750
:100E30000524CAE70624C8E7003C01400000024040
:100E4000003802400AB1816170470904FBE7436939
:100E500001EA030221EA030141EA0241816170478C
:100E6000044B01221A62044B82B01B680193019B60
:100E700002B0704700000E4200700040044B002298
:100E80001A62044B82B01B680193019B02B0704749
:100E900000000E42007000402DE9F341044640B3CB
:100EA0000368DD0710D4236898075ED423681A0707
:100EB00000F1A08023685B0700F1C080A0690028D2
:100EC00040F0288100202BE08F4B9A6802F00C0242
:100ED000042A07D09A6802F00C02082A0BD15A683B
:100EE000510208D5884B1B689A03DCD56368002B38
:100EF000D9D1012014E06268B2F5803F13D11A689D
:100F000042F480321A60FFF751FE7F4E0546336887
:100F10009B03C8D4FFF74AFE401B6428F7D903207F
:100F200002B0BDE8F081784DB2F5A02F2B6807D153
:100F300043F480232B602B6843F480332B60E2E77B
:100F400023F480332B602B6823F480232B60002A4A
:100F5000D9D1FFF72BFE06462B689F03A3D5FFF7D9
:100F600025FE801B6428F7D9D9E7674B9A6812F0F1
:100F70000C0F07D09A6802F00C02082A11D15B68A6
:100F80005E020ED4604A13689D0702D5E368012B08
:100F9000AFD11368216923F0F80343EAC10313605A
:100FA00084E7E268594BB2B101221A60FFF7FEFDF7
:100FB000554D06462B68980707D52B68226923F004
:100FC000F80343EAC2032B6070E7FFF7EFFD801BD5
:100FD0000228EFD9A3E71A60FFF7E8FD4A4E05465D
:100FE000336899077FF562AFFFF7E0FD401B0228E9
:100FF000F6D994E76269454B82B10122C3F8802E8D
:10100000FFF7D4FD404E0546736F9F073FF552AF83
:10101000FFF7CCFD401B0228F6D980E7C3F8802EED
:10102000FFF7C4FD384E0546736F98077FF542AF52
:10103000FFF7BCFD401B0228F6D970E7324B1A6C53
:1010400012F0805228D101921A6C42F080521A6438
:101050001B6C03F080530193019B01272C4D2B68DF
:10106000D9051BD5A368284D012B27D12B6F43F041
:1010700001032B67FFF79AFD234E054641F288389E
:10108000336F9B0739D5002F3FF418AF1E4A136CFE
:1010900023F08053136411E70027DFE72B6843F444
:1010A00080732B60FFF782FD06462B68DA05D9D4E2
:1010B000FFF77CFD801B0228F7D930E7052B04D110
:1010C0002B6F43F004032B67D0E72A6F22F0010255
:1010D0002A672A6F22F004022A67002BCAD1FFF781
:1010E00065FD41F2883806462B6F9807CBD5FFF790
:1010F0005DFD801B4045F7D911E7FFF757FD401B09
:101100004045BDD90BE700BF003802400000474210
:1011100000700040364DAB6803F00C03082B3DD047
:10112000344B002202281A662BD1FFF73FFD0646FA
:101130002B6899011FD4D4E907321343626A43EA4A
:101140008213E26A43EA0263A26A5208013A43EA5E
:1011500002436B60274B264D01221A66FFF726FDDE
:1011600004462B689A013FF5ADAEFFF71FFD001B4B
:101170000228F6D9D3E6FFF719FD801B0228D7D93C
:10118000CDE6FFF713FD04462B689B017FF59AAE71
:10119000FFF70CFD001B0228F6D9C0E601283FF43A
:1011A000BFAE6B68E26903F4800191427FF4A1AEA7
:1011B000216A03F03F028A427FF49BAE616A47F6E0
:1011C000C0721A40B2EB811F7FF493AEA26A52083C
:1011D00003F44031013AB1EB024F7FF48AAEE26A88
:1011E00003F07063B3EB026F3FF46CAE81E600BFB7
:1011F0000038024000004742134908B58B6803F0ED
:101200000C03042B1CD0082B1CD14A684B6849687E
:1012100013F4800314BF0D480D48C1F3881118BFA3
:10122000002302F03F02A1FB0001FFF721F8064B6B
:101230005B68C3F3014301335B00B0FBF3F008BD0F
:101240000248FCE70248FAE70038024040787D0196
:101250000024F4002DE9F0410D46044610B90120A8
:10126000BDE8F081444B1A6802F007028A4228D395
:10127000226897072DD4D00741D43F4B1A6802F05B
:101280000702AA4266D8226851076CD4130707D513
:101290003A4A2169936823F4604343EAC1039360A7
:1012A000FFF7AAFF354B364A9B68C3F30313D35CA1
:1012B000D840344B1860344B1868FFF72DFC0020E1
:1012C000CEE7CAB21A701B6803F007038B42C6D17F
:1012D000CEE72A4B12F0040F1EBF996841F4E0518B
:1012E0009960160742BF996841F4604199602349AB
:1012F000A0688B6823F0F00303438B60BBE7626850
:101300001E4B012A1CD11B6813F4003FA7D01B4EB3
:10131000B36823F003031343B360FFF747FC41F2C4
:1013200088380746B368626803F00C03B3EB820F9A
:10133000A3D0FFF73BFCC01B4045F3D903208FE748
:10134000911E01291B6802D813F0007FDEE713F01D
:10135000020FDBE7EAB21A701B6803F00703AB4227
:101360007FF47DAF8FE70549E0688B6823F4E05395
:1013700003438B608AE700BF003C02400038024014
:10138000384200080000002008000020036A23F013
:1013900001030362036A70B5446882690D6822F034
:1013A00073022A438D6823F002032B430E4DA8429B
:1013B00002D00E4EB04210D1CE6823F00803334362
:1013C000A84223F0040302D0084DA84205D1D1E978
:1013D000055624F4407435432C43446082614A68C6
:1013E0004263036270BD00BF000001400004014081
:1013F000036A23F480730362036A70B54468C269A8
:101400000D6822F073022A438D6823F4007343EAC7
:101410000523114DA84203D005F58065A84214D1DB
:10142000CD6823F4006343EA05230B4DA84223F45F
:10143000806303D005F58065A84206D1D1E9055641
:1014400024F44054354344EA05144460C2614A68B8
:10145000C263036270BD00BF00000140036A23F451
:1014600080530362036A30B54468C2690D6822F490
:10147000E64242EA05228D6823F4005343EA05332D
:10148000084DA84203D005F58065A84204D14D69F6
:1014900024F4804444EA85144460C2614A680264CA
:1014A000036230BD0000014070470000304A03680D
:1014B000904212D0B0F1804F0FD0A2F57C42904202
:1014C0000BD002F58062904207D002F58062904214
:1014D00003D002F57842904219D14A6823F0700394
:1014E0001343234A904229D0B0F1804F26D0A2F571
:1014F0007C42904222D002F5806290421ED002F5DA
:10150000806290421AD002F57842904216D0194A71
:10151000904213D002F5806290420FD002F58062B3
:1015200090420BD0A2F59832904207D002F580622B
:10153000904203D002F58062904203D1CA6823F43E
:10154000407313434A6923F08003134303608B689D
:10155000C3620B688362064B984203D003F5806335
:10156000984201D10B69036301234361704700BFB7
:10157000000001400040014010B5044630B390F82F
:101580003D3003F0FF021BB980F83C20FFF72AFA38
:101590000223206884F83D30211DFFF787FF0123D7
:1015A00084F84630002084F83E3084F83F3084F8D8
:1015B000403084F8413084F8423084F8433084F875
:1015C000443084F8453084F83D3010BD0120FCE7FC
:1015D00010B5044630B390F83D3003F0FF021BB95C
:1015E00080F83C20FFF760FF0223206884F83D303C
:1015F000211DFFF75BFF012384F84630002084F8AB
:101600003E3084F83F3084F8403084F8413084F82C
:10161000423084F8433084F8443084F8453084F80C
:101620003D3010BD0120FCE7F8B50D46044600280A
:101630004DD090F83D3003F0FF021BB980F83C20FC
:10164000FFF79EF92146022384F83D3051F8040B40
:10165000836823F4804323F007038360FFF726FFAA
:1016600020682A6886688369A968076A1643AA6998
:1016700023F4407341EA022123F003030B4323F4D4
:101680007C422B69E9691B0143EA0123E9680B43AA
:10169000296A22F0FC0243EA01331343696927F007
:1016A000AA026F68866047EA011783611743012326
:1016B000076284F84630002084F83E3084F83F30DA
:1016C00084F8423084F8433084F83D30F8BD01207E
:1016D000FCE70000036A23F010030362036A70B59D
:1016E000446882690D6822F4E64242EA05228D6868
:1016F00023F0200343EA0513104DA84203D005F55B
:101700008065A84214D1CD6823F0800343EA051315
:101710000A4DA84223F0400303D005F58065A84296
:1017200006D1D1E9055624F44064354344EA8504E2
:10173000446082614A688263036270BD00000140B8
:1017400070B590F83C30012B054653D00120082A93
:1017500085F83C003DD006D8C2B1042A28D0002329
:1017600085F83C3070BD0C2AF9D12868FFF776FE69
:101770002B680969DA6942F40062DA61DA6922F4F5
:101780008062DA61DA6942EA012231E02868FFF713
:10179000FDFD2B6809699A6942F008029A619A690D
:1017A00022F004029A619A690A439A610020D6E7FE
:1017B0002868FFF78FFF2B6809699A6942F4006275
:1017C0009A619A6922F480629A619A6942EA0122D6
:1017D000EBE72868FFF70CFE2B680969DA6942F02D
:1017E0000802DA61DA6922F00402DA61DA690A438E
:1017F000DA61DBE70220B5E710B58468114324F411
:101800007F4441EA03232343836010BD70B590F801
:101810003C30012B04464FF0020300F0918001227E
:1018200080F83D3080F83C200068836823F47F43D3
:1018300023F0770383600B68602B52D033D8402BA2
:1018400067D016D8202B0DD00AD833F0100109D05C
:10185000012384F83D30002384F83C30104670BDED
:10186000302BF5D1826822F07002134343F0070356
:1018700017E0502BECD14A68CE68016A056A25F062
:1018800001050562836921F00A0123F0F00343EAB0
:1018900006130A4383610262836823F0700343F0F6
:1018A0005703836011E0B3F5805F0ED0B3F5005F9E
:1018B0000DD0702BCCD1CB68D1E90121FFF79CFF73
:1018C0002268936843F0770393600022C0E7CB68F7
:1018D000D1E90121FFF790FF2268936843F4804328
:1018E000F2E74D68CE68016A21F010010162826959
:1018F000036A22F4704223F0A00343EA051342EA8C
:10190000063282610362836823F0700343F0670349
:10191000C7E74A68CE68016A056A25F001050562D5
:10192000836921F00A0123F0F00343EA06130A4316
:1019300083610262836823F0700343F04703B0E7DA
:101940001A468BE7036A01F01F0110B501248C4091
:1019500023EA04030362036A8A401A43026210BD49
:1019600010B5044629B990F83E30012B18D001205B
:101970002DE004290DD190F83F30013B18BF012321
:10198000002BF4D104294FF0020321D184F83F3019
:1019900009E008290CBF90F8403090F84130ECE79E
:1019A000022380F83E3020680122FFF7CBFF236836
:1019B0001C498B4213D01C4A934210D0B3F1804F84
:1019C00014D19A6802F00702062A26D1002010BD21
:1019D00008290CBF84F8403084F84130E3E75A6CA2
:1019E0008B4242F400425A64EBD0E7E70F4A93423D
:1019F000E7D002F580629342E3D002F58062934221
:101A0000DFD002F578429342DBD002F57052934268
:101A1000D7D0A2F594329342D3D01A6842F0010293
:101A20001A60D3E7000001400004014000040040B8
:101A3000FFF796BF30B590F83C30012B4FF0020312
:101A400032D080F83D3003680D685C689A6824F0F5
:101A500070042C435C60154CA3421AD0B3F1804F44
:101A600017D0A4F57C44A34213D004F58064A342AC
:101A70000FD004F58064A3420BD004F57844A34250
:101A800007D004F57054A34203D0A4F59434A342C4
:101A900004D1496822F080020A439A60012380F849
:101AA0003D30002380F83C30184630BD0000014036
:101AB00090F83C30012B1FD0CB688A6823F4407328
:101AC00013434A6823F4806313430A6823F40063D2
:101AD00013430A6923F4805313434A6923F40053E0
:101AE0001343CA6923F480431343026853640023F9
:101AF00080F83C301846704702207047EFF30583AA
:101B00002BB9064B186828B901221A6070476FF08C
:101B1000050070474FF0FF30704700BF940300206E
:101B200010B5EFF305845CB9084B1A68012A0AD195
:101B3000074AD47702221A6000F088FD204610BDC3
:101B40006FF00500FBE74FF0FF30F8E7940300204B
:101B500000ED00E0F0B587B0144600220B46059278
:101B6000EFF30582D2B9C8B1002C2FD0A569002DA2
:101B700008BF1825691E3729AC462BD86168C907EC
:101B800028D466696EB1B208D4E9027E216857B1E3
:101B9000BEF15B0F02D9246904B1EEB9059807B014
:101BA000F0BD8022F0E7BEF1000FF7D12469002CD0
:101BB000F4D10C4605A9CDE900C192B2214600F04E
:101BC00018FD01281CBF00230593E7E74FF0180C10
:101BD0008022EFE71046E2E7CDE90147009500F0EB
:101BE000D0FC0590DAE710B5EFF3058424B910B105
:101BF00000F08AFE204610BD6FF00500FBE70000F4
:101C0000034B0360034B0B6080231360704700BFDE
:101C10003803002038010020034B0360034B0B60A6
:101C20004FF48073136070479807002098030020DA
:101C300000F108034FF0FF32C0E902234360036163
:101C400000230360704700230361704743684B60C3
:101C50009A688A609A6851609960036808610133E4
:101C60000360704730B50C68631C0AD103695A6879
:101C70004A6091608B6059600368086101330360BA
:101C800030BD00F10802134652681568A542FAD922
:101C9000EDE7D0E9011203698A6051605968814219
:101CA00008BF5A60002202611A68013A1A60186877
:101CB000704710B5044601F0F5F9A46B01F012FA73
:101CC000B4FA84F0400910BDF8B51546026C866B75
:101CD000044652B9076847BB806800F04DFFA76013
:101CE00005460136A6632846F8BD65B9406801F08F
:101CF000B3FD6368226C1344A26863609342F0D31F
:101D000023686360EDE7C06801F0A6FD226CE3681C
:101D100051429B1A2268E36093423EBFA3685B185E
:101D2000E360022D01D116B1013E0025D9E7354609
:101D3000D7E7034610B41A6C08466AB1DC689968A4
:101D400014448C4228BF1968DC6028BFD960D96868
:101D50005DF8044B01F080BD5DF8044B704770B531
:101D6000044601F09FF994F8455004F124066DB241
:101D7000002D14DCFF2384F8453001F0B3F901F0A5
:101D800091F994F8445004F110066DB2002D12DC64
:101D9000FF2384F84430BDE8704001F0A3B9636AC2
:101DA000002BE7D0304600F045FE08B100F0CEFE33
:101DB000013D6DB2DCE72369002BE9D0304600F02D
:101DC00039FE08B100F0C2FE013D6DB2DEE738B564
:101DD0000D46044640B94FF0500383F31188BFF31A
:101DE0006F8FBFF34F8FFEE701F05CF9D4E90F313D
:101DF000226862604B43D0185B1A1344A060E36012
:101E00000020FF23A06384F8443084F84530A5B94E
:101E1000236973B104F1100000F00CFE48B14FF0DB
:101E2000E0234FF08052C3F8042DBFF34F8FBFF370
:101E30006F8F01F057F9012038BD04F11000FFF752
:101E4000F7FE04F12400FFF7F3FEF2E713B51C469A
:101E500040B94FF0500383F31188BFF36F8FBFF386
:101E60004F8FFEE743B94FF0500383F31188BFF360
:101E70006F8FBFF34F8FFEE74AB191B94FF0500318
:101E800083F31188BFF36F8FBFF34F8FFEE741B12C
:101E90004FF0500383F31188BFF36F8FBFF34F8F61
:101EA000FEE750230193019B502B08D04FF05003C5
:101EB00083F31188BFF36F8FBFF34F8FFEE70029C5
:101EC00008BF2246019B22600123C4E90F0184F868
:101ED000463019462046FFF77AFF9DF8103084F807
:101EE0004C30204602B010BD2DE9F04385B0884645
:101EF00001921F46044640B94FF0500383F3118806
:101F0000BFF36F8FBFF34F8FFEE751B9036C43B13F
:101F10004FF0500383F31188BFF36F8FBFF34F8FE0
:101F2000FEE7022F0BD1E36B012B08D04FF05003DB
:101F300083F31188BFF36F8FBFF34F8FFEE700F07D
:101F40000BFE064650B9019B4BB14FF0500383F393
:101F50001188BFF36F8FBFF34F8FFEE700264FF05E
:101F6000000937E0019D1DB901F0BCF8002052E0E6
:101F700016B902A800F0A2FD01F0B4F800F0ACFB25
:101F800001F090F894F84430FF2B08BF84F8449097
:101F900094F84530FF2B08BF84F8459001F0A2F873
:101FA00001A902A800F096FD00284AD101F07AF8B4
:101FB000A26BE36B9A4231D101F094F8019904F1DC
:101FC000100000F0FFFC2046FFF7C9FE00F028FCDF
:101FD00060B3012601F066F8A26BE36B9A4201D36D
:101FE000022FBFD13A4641462046FFF76DFE636A95
:101FF0001BB104F1240000F01DFD48B14FF0E023B7
:102000004FF08052C3F8042DBFF34F8FBFF36F8F93
:1020100001F068F8012005B0BDE8F08301F062F836
:102020002046FFF79CFE00F0FBFBD2E74FF0E023D9
:102030004FF08052C3F8042DBFF34F8FBFF36F8F63
:10204000C7E72046FFF78BFE00F0EAFB8EE72DE99D
:10205000F843894690461F46044640B94FF0500366
:1020600083F31188BFF36F8FBFF34F8FFEE751B932
:10207000036C43B14FF0500383F31188BFF36F8FAC
:10208000BFF34F8FFEE7022F0BD1E36B012B08D07C
:102090004FF0500383F31188BFF36F8FBFF34F8F5F
:1020A000FEE701F015F9EFF311864FF0500383F3CB
:1020B0001188BFF36F8FBFF34F8FA26BE36B9A4210
:1020C00001D3022F23D194F84550A36B6DB23A4649
:1020D00049462046FFF7F8FD6B1C13D1636A0BB924
:1020E00001200BE004F1240000F0A4FC0028F7D04C
:1020F000B8F1000FF4D00120C8F8000086F3118871
:10210000BDE8F88301356DB284F84550E8E700205A
:10211000F4E72DE9FF410F460192044640B94FF024
:10212000500383F31188BFF36F8FBFF34F8FFEE728
:1021300051B9036C43B14FF0500383F31188BFF3DF
:102140006F8FBFF34F8FFEE700F006FD064650B9D4
:10215000019B4BB14FF0500383F31188BFF36F8F96
:10216000BFF34F8FFEE700264FF000083DE0019DD2
:102170001DB900F0B7FF002056E016B902A800F024
:102180009DFC00F0AFFF00F0A7FA00F08BFF94F881
:102190004430FF2B08BF84F8448094F84530FF2B6F
:1021A00008BF84F8458000F09DFF01A902A800F057
:1021B00091FC002841D12046FFF77BFDB8B301997F
:1021C00004F1240000F0FEFB2046FFF7C8FD00F0FC
:1021D00027FB48B94FF0E0234FF08052C3F8042D9D
:1021E000BFF34F8FBFF36F8F012600F05BFFA56B2E
:1021F000002DBCD039462046013DFFF79AFDA5636E
:10220000236973B104F1100000F014FC48B14FF0E1
:10221000E0234FF08052C3F8042DBFF34F8FBFF37C
:102220006F8F00F05FFF012004B0BDE8F081204611
:10223000FFF795FD00F0F4FAD6E72046FFF78FFD93
:1022400000F0EEFA2046FFF734FD0028CCD092E7EC
:1022500010B5074A002352F833402CB942F8331026
:1022600002EBC303586010BD0133082BF3D1FAE72A
:10227000F407002070B504460D46164600F012FF24
:1022800094F84430FF2B04BF002384F8443094F8C2
:102290004530FF2B04BF002384F8453000F022FFB7
:1022A000A36B2BB93246294604F1240000F0A4FBAD
:1022B0002046BDE87040FFF752BD00002DE9F04117
:1022C000044600F0EFFE304B304E1A68304F0132BA
:1022D0001A603568002D4BD134601B68012B1FD16B
:1022E000B84640460135FFF7A3FC382D08F1140825
:1022F000F7D1DFF8C480274D4046FFF799FC284608
:10230000FFF796FC2448FFF793FC2448FFF790FC66
:102310002348FFF78DFC234BC3F80080224B1D6040
:10232000224A136801331360214A63641168E36A27
:1023300014208B4200FB037004F1040188BF13607A
:10234000FFF784FC00F0CEFE1A4B1B6873B13368B4
:10235000DA6AE36A9A4209D24FF0E0234FF08052E2
:10236000C3F8042DBFF34F8FBFF36F8FBDE8F0812B
:10237000104B1B68002BD3D13368DA6AE36A9A42A8
:1023800098BF3460CCE700BFA00C002034080020C8
:1023900040080020C80C0020E80C0020140D00208C
:1023A000000D0020380800203C080020AC0C002064
:1023B000B00C0020FC0C0020B40C0020F8B5154B2C
:1023C000154E1D680446306804300F46FFF761FC67
:1023D000631C07D137B131681048BDE8F8400431BB
:1023E000FFF734BC33682C195C6007D30C4B1868BA
:1023F0003168BDE8F8400431FFF734BC094B186878
:1024000031680431FFF72EFC074B1A68A24288BFDF
:102410001C60F8BD280D002034080020000D0020AD
:102420003C08002038080020DC0C0020064A136815
:102430001968064B19B94FF0FF321A6070471268DD
:10244000D268D2685268F8E738080020DC0C002017
:1024500010B590F8593004463BB9006B01F022F8F2
:102460002046BDE8104001F01DB8012BF9D0022B29
:1024700008D04FF0500383F31188BFF36F8FBFF381
:102480004F8FFEE710BD000080B5134C134F144D65
:10249000236873B9134B1B68012BF8D94FF0E02365
:1024A0004FF08052C3F8042DBFF34F8FBFF36F8FEF
:1024B000EDE700F0F7FDFB68DE68301DFFF7E9FB94
:1024C0002B68013B2B602368013B236000F00AFE70
:1024D0003046FFF7BDFFDBE7A40C0020140D002001
:1024E000A00C0020400800202DE9F047DDE9098418
:1024F0004FEA82094A4606460D46206BA5211F4633
:1025000001F0B8F9226BA9F10409914429F00709F7
:10251000A5B36B1E04F134020F3513F8010F02F856
:10252000010B08B1AB42F8D1002384F84330089D79
:10253000372D28BF37254FF0000AE562E564201DDE
:10254000C4F850A0FFF77FFBC5F1380504F118006F
:10255000FFF779FBC4F854A02461A561646284F894
:1025600058A03A463146484600F074FD2060B8F164
:10257000000F01D0C8F80040BDE8F08784F834505F
:10258000D5E770B586B0DDE90B5445B94FF050037F
:1025900083F31188BFF36F8FBFF34F8FFEE744B90A
:1025A0004FF0500383F31188BFF36F8FBFF34F8F4A
:1025B000FEE75C260596059E5C2E08D04FF0500382
:1025C00083F31188BFF36F8FBFF34F8FFEE725634F
:1025D000022584F8595004AD01950A9D0294009596
:1025E000059EFFF781FF2046FFF768FE049806B0BE
:1025F00070BD2DE9F043074685B090008846164629
:10260000994600F0B7FE0546E8B15C2000F0B2FE46
:102610000446A8B1002380F859300D9B056301934F
:102620000C9B0290009332464B4641463846FFF7DA
:102630005BFF2046FFF742FE012005B0BDE8F083B6
:10264000284600F02FFF4FF0FF30F6E710B588B0B6
:10265000002407AA06A905A8CDE90544FFF7D0FA8A
:10266000059B0293069B079A16491748CDE900433C
:102670002346FFF786FF18B300F014FB012814D19E
:102680004FF0500383F31188BFF36F8FBFF34F8F69
:102690000E4B4FF0FF321A600D4B18600D4B1C6053
:1026A00008B0BDE8104000F08DBD013008D14FF0FA
:1026B000500383F31188BFF36F8FBFF34F8FFEE793
:1026C00008B010BD4842000889240008DC0C002036
:1026D000FC0C0020280D0020024A1368013313600F
:1026E000704700BFA80C0020014B1868704700BF5E
:1026F000280D00203F4B1B682DE9F74F002B73D1AD
:102700003D4B1D6801351D60BDB93C4B1A68126810
:1027100042B14FF0500383F31188BFF36F8FBFF3C3
:102720004F8FFEE7364A1968106818601160354A05
:10273000136801331360FFF779FE334E334F33686C
:10274000DFF8D4809D424FF0000411D2D8F8003059
:10275000DB6A14225343FB58022B2D4B1B6828BF06
:102760000124002B18BF0124204603B0BDE8F08FE0
:10277000DFF88890DFF8A4A0D9F800301B681BB9F7
:102780004FF0FF333360E1E7D9F80030DB68D3F86E
:102790000CB0DBF80420954201D23260D6E70BF191
:1027A000040108460191FFF774FADBF8282001992B
:1027B00022B10BF11800FFF76CFA0199DBF82C003D
:1027C000DAF800201423904288BFCAF8000003FB07
:1027D0000070FFF73BFAD8F80010DBF82C20CB6A2A
:1027E0009A4228BF0124C7E70A4A136801331360DD
:1027F0000024B9E7A80C0020280D0020380800208C
:102800003C080020E00C0020DC0C002040080020E8
:102810002C0D0020E40C002034080020B00C002017
:10282000F7B5314C236843B94FF0500383F3118857
:10283000BFF36F8FBFF34F8FFEE700F033FC2368C9
:10284000013B236024682CB1002400F04BFC20469F
:1028500003B0F0BD254B1B68002BF5D0244D254E51
:10286000254F1EE0EB68DC6804F11800FFF711FA51
:10287000211D08460191FFF70CFAE36A32680199BD
:102880001420934200FB037088BF3360FFF7DEF92A
:102890001A4BE26A1B68DB6A9A4202D3184B012288
:1028A0001A602B68002BDDD10CB1FFF7BFFD154D71
:1028B0002C6844B1124E0127FFF71CFF00B13760AE
:1028C000013CF9D12C600E4B1B68002BBCD04FF0A3
:1028D000E0234FF08052C3F8042DBFF34F8FBFF3B6
:1028E0006F8F0124B1E700BFA80C0020A00C0020CE
:1028F000E80C0020B00C0020400800203408002024
:102900002C0D0020E40C002008B550B94FF0E02356
:102910004FF08052C3F8042DBFF34F8FBFF36F8F7A
:1029200008BD0A4B196841B14FF0500383F3118879
:10293000BFF36F8FBFF34F8FFEE7FFF7CDFEFFF7BB
:102940003DFDFFF76DFF0028E0D0E9E7A80C00206F
:10295000174B1A68174B70B512B101221A6070BD7F
:10296000154D1A602A681549142606FB02F3C8188B
:10297000CC588CB144680833646844600B449C4272
:1029800004BF63684360142303FB02114B68D968DA
:102990000B4B19602A60E2E742B94FF0500383F312
:1029A0001188BFF36F8FBFF34F8FFEE7013ADCE76B
:1029B000A80C00202C0D0020B00C002040080020A6
:1029C0003408002010B50C4640B94FF0500383F393
:1029D0001188BFF36F8FBFF34F8FFEE7054B196868
:1029E0001831FFF73FF920460121BDE81040FFF7FD
:1029F000E5BC00BF3408002038B50D46144640B988
:102A00004FF0500383F31188BFF36F8FBFF34F8FE5
:102A1000FEE7074B19681831FFF718F9002C21461B
:102A20000CBF28464FF0FF30BDE83840FFF7C6BC6A
:102A300034080020C36813B5DC6844B94FF0500374
:102A400083F31188BFF36F8FBFF34F8FFEE704F15D
:102A5000180108460191FFF71CF9124B01991B68F8
:102A6000EBB9211D08460191FFF713F90E4AE36AFD
:102A700010680199834288BF13600C4A142000FB40
:102A80000320FFF7E3F80A4BE26A1B68DB6A9A420D
:102A900085BF084B01200020186002B010BD064819
:102AA000EFE700BFA80C0020B00C00204008002079
:102AB000340800202C0D0020E80C0020034B1B687C
:102AC0000360034B1B684360704700BFE00C0020AD
:102AD000280D002070B50C46054640B94FF0500354
:102AE00083F31188BFF36F8FBFF34F8FFEE741B9B8
:102AF0004FF0500383F31188BFF36F8FBFF34F8FF5
:102B0000FEE700F0CFFA0F4B196823685A1C10D06B
:102B10000D482E6800686A68864201D08A420FD943
:102B2000881A83420AD95B1A134423602846FFF7A8
:102B3000C5FF002400F0D6FA204670BD00232360B4
:102B40000124F7E7280D0020E00C0020014B0122B2
:102B50001A6070472C0D0020054B1B6833B1054BE4
:102B60001B68002B0CBF022000207047012070471B
:102B7000FC0C0020A80C002013B510B9002002B0F6
:102B800010BD1C4B1C68844208D04FF0500383F3E7
:102B90001188BFF36F8FBFF34F8FFEE7236D43B9EB
:102BA0004FF0500383F31188BFF36F8FBFF34F8F44
:102BB000FEE7E16AE26C013B91422365DED0002B27
:102BC000DCD1211D08460191FFF763F8E36C019900
:102BD000E362C3F13802A261074A1068834288BFEA
:102BE0001360064A142000FB0320FFF72FF8012092
:102BF000C5E700BF34080020B00C002040080020CA
:102C0000F7B5114C00F04EFA2568BDB90F4F104EC4
:102C10003846FFF70DF83046FFF70AF80D4B0E4A1D
:102C20001F600E4B10211E600A200D4B0095FFF710
:102C30000DF9206010B10B49FFF70AFB03B0BDE8A6
:102C4000F04000F04FBA00BF540E0020D80D002015
:102C5000EC0D0020300D0020380D0020340D002038
:102C6000040E00204D420008914208B54160006109
:102C70000AD8D21A83699A420DD2084B011D1868EE
:102C8000FEF7F0FF002008BD9A4201D2994202D21D
:102C9000034B011DF3E70120F5E700BF340D0020D1
:102CA000300D002010B588B0FFF7AAFF124B1B684B
:102CB000B3B1002407AA06A905A8CDE90544FEF78B
:102CC000ABFF059B0293069B019302230093079A97
:102CD0000A490B482346FFF754FC0A4B186040B9D9
:102CE0004FF0500383F31188BFF36F8FBFF34F8F03
:102CF000FEE7012008B010BD540E0020524200082B
:102D00000D2E0008580E00207FB5164604461A46C0
:102D100040B94FF0500383F31188BFF36F8FBFF3B7
:102D20004F8FFEE70D4D286880B10529CDE90016CB
:102D300002940DDCFFF710FF0023022808BF089A59
:102D4000286818BF1A466946FFF7CEF804B070BD70
:102D500000236946FFF77BF9F8E700BF540E002017
:102D60002DE9FF47DFF8A0800646FFF7BDFCD8F845
:102D700000308342054640D9214F4FF000093B689F
:102D80001A685AB91F4A116839601360012328462E
:102D90003360C8F8005004B0BDE8F087DB68DC6839
:102DA000D3F800A0211D08460391FEF772FF236AA5
:102DB0002046984794F82830039913F0040FDED08A
:102DC000A36953449A4505D2386863602461FEF7CD
:102DD00049FFD4E70023CDF800905246194620461B
:102DE000FFF792FF0028CAD14FF0500383F31188F8
:102DF000BFF36F8FBFF34F8FFEE70023C7E700BF1E
:102E0000300D0020340D0020000E00202DE9F0438D
:102E10006E4D6F4E89B02B68D3F80080B8F1000F6B
:102E200035D0DB68D3F800800024FFF755FC04A8F8
:102E3000FFF796FF049B8146002B69D1002C4CD1F3
:102E4000404550D3FFF7ECFC2B68DB68DF68381D8A
:102E5000FEF71FFF97F8283058071AD5B96943467F
:102E60004A4641443846FFF7FFFEB0B1009423467E
:102E7000424621463846FFF747FF70B94FF05003EE
:102E800083F31188BFF36F8FBFF34F8FFEE70124E9
:102E9000CBE723F0010387F828303B6A3846984790
:102EA0003068002204A9FFF734F90028B3D0049B4E
:102EB0000698002B2FDB069C6369002B32D103A8F8
:102EC000FFF74EFF049B0246092BE9D8DFE803F029
:102ED0002E2E2E575E762E2E575E3E4B1B681C689C
:102EE000B4FA84F4640930682246A8EB0901FFF7BC
:102EF000C1F9FFF795FC0028D2D14FF0E0234FF045
:102F00008052C3F8042DBFF34F8FBFF36F8FC7E715
:102F1000FFF786FCC4E7059B07999847049B002BA5
:102F2000BEDBC8E7201DFEF7B4FEC8E794F82830E2
:102F3000A16943F0010384F82830059B2046194419
:102F4000FFF792FE0028ABD0236A2046984794F8FA
:102F500028305907A4D5A269059900230A44009393
:102F600019462046FFF7D0FE002899D14FF05003B4
:102F700083F31188BFF36F8FBFF34F8FFEE794F891
:102F8000283023F0010384F8283089E794F82830AA
:102F900043F0010384F828300599A16141B94FF04D
:102FA000500383F31188BFF36F8FBFF34F8FFEE79A
:102FB000034601442046FFF757FE71E794F8283096
:102FC0009A07DED4204600F06DFA69E7300D002044
:102FD000540E0020340D002008480068006880F37B
:102FE00008884FF0000080F3148862B661B6BFF322
:102FF0004F8FBFF36F8F00DF00BF000008ED00E0D0
:10300000DFF80C00016841F47001016070470000B6
:1030100088ED00E082B0002301930D4B1B68013363
:1030200008D04FF0500383F31188BFF36F8FBFF3C5
:103030004F8FFEE74FF0500383F31188BFF36F8F7C
:10304000BFF34F8F019B002BFCD002B0704700BF35
:103050000C0000204FF0807340F8043C074B40F810
:103060000C3C21F001016FF0020340F8081C40F80D
:10307000202C40F8243C4438704700BF153000082D
:10308000074B19680868B0E8F04F80F30988BFF370
:103090006F8F4FF0000080F311887047AFF300800E
:1030A000340800204FF0500383F31188BFF36F8F73
:1030B000BFF34F8F0A4A13680133012B13600ED1FF
:1030C0004FF0E023D3F8043DDBB243B14FF050039F
:1030D00083F31188BFF36F8FBFF34F8FFEE7704705
:1030E0000C000020084A136843B94FF0500383F3E3
:1030F0001188BFF36F8FBFF34F8FFEE7013B136063
:103100000BB983F3118870470C0000200000000009
:10311000EFF30980BFF36F8F154B1A681EF0100F85
:1031200008BF20ED108A20E9F04F10602DE909005A
:103130004FF0500080F31188BFF34F8FBFF36F8FB4
:10314000FFF706FC4FF0000080F3118809BC1968F6
:103150000868B0E8F04F1EF0100F08BFB0EC108AFE
:1031600080F30988BFF36F8F704700BFAFF3008013
:103170003408002008B54FF0500383F31188BFF3E3
:103180006F8FBFF34F8FFFF7B5FA28B14FF0E023F1
:103190004FF08052C3F8042D002383F3118808BD3B
:1031A0004FF0E022002313619361054B4FF47A71D5
:1031B0001B68B3FBF1F3013B5361072313617047B5
:1031C000000000204FF0E02337B5D3F8001D3A4A45
:1031D000914208D14FF0500383F31188BFF36F8FF2
:1031E000BFF34F8FFEE7D3F8002D344B9A4208D13E
:1031F0004FF0500383F31188BFF36F8FBFF34F8FEE
:10320000FEE72F4B1A78D2B20192FF221A701B7878
:103210002C4ADBB28DF803309DF8033003F05003E5
:103220001370294A0723136000219DF8030000064C
:1032300003F1FF340CD411B1032B136011D04FF004
:10324000500383F31188BFF36F8FBFF34F8FFEE7F7
:103250009DF803305B00DBB28DF80330012123467B
:10326000E3E74FF440731360019B154A4FF0E024ED
:10327000DBB21370D4F8203D43F47003C4F8203D52
:10328000D4F8203D43F07043C4F8203DFFF788FF99
:103290000E4B00251D60FFF7B3FED4F8343F43F01A
:1032A0004043C4F8343FFFF797FEFFF751FBFFF7A9
:1032B000B1FE284603B030BD71C20F4170C20F414C
:1032C00000E400E05C0E0020600E00200C000020F6
:1032D000EFF305830F2B0ED9114A9B5C114A12782C
:1032E0009A4208D94FF0500383F31188BFF36F8FD0
:1032F000BFF34F8FFEE74FF0E0230B4AD3F80C3DAE
:10330000126803F4E063934208D94FF0500383F34B
:103310001188BFF36F8FBFF34F8FFEE7704700BF79
:10332000F0E300E05C0E0020600E002010B50F4BB3
:103330001A461B688342FBD354681119884201BFA7
:103340004168104609195160446801198B4207D140
:10335000074909688B421FBF59681B6809194160FA
:103360009042036018BF106010BD00BF7C4A00206F
:10337000640E00202DE9F0410446FFF7ADF9424804
:10338000424D03680BBB42494E071FBFCB1D23F0C4
:10339000070301F57052D21A14BF19464FF4705248
:1033A0000A443C4E083A22F0070200237360316061
:1033B000C2E90033531AC1E900230260364A1360A0
:1033C000364A13604FF000432B602F68274255D1D7
:1033D000002C46D004F1080361071CBF23F007034B
:1033E0000833002B4AD02D4C26689E4246D3294AEA
:1033F00015686968994204D2D5F800C0BCF1000F85
:1034000015D10068A84239D0C91A2868D2F80080BE
:103410001060102912D9E81842070BD04FF0500362
:1034200083F31188BFF36F8FBFF34F8FFEE72A46F8
:103430006546DEE741606B60FFF778FF6B68164911
:10344000174A0868F61A1F4300232B60136826608A
:10345000864203F1010338BF0E6008F108046F6073
:103460001360FFF7DDF963070AD04FF0500383F3D1
:103470001188BFF36F8FBFF34F8FFEE70024F0E793
:103480002046BDE8F08100BF640E0020684A00209D
:10349000680E00207C4A0020704A00206C4A002000
:1034A000744A002010B5044690B31A4A50F8043C00
:1034B0001268134208D14FF0500383F31188BFF311
:1034C0006F8FBFF34F8FFEE750F8081C41B14FF0EC
:1034D000500383F31188BFF36F8FBFF34F8FFEE765
:1034E00023EA020340F8043CFFF7F6F80A4A54F8CE
:1034F000043C1168A4F108000B441360FFF716FFA9
:10350000064A1368BDE8104001331360FFF788B91D
:1035100010BD00BF684A00206C4A0020784A002095
:1035200070B50A46044601B101221348124E4FF409
:103530008071FDF787FC0825002220213046FDF729
:1035400081FC23064CBF0122002240213046FDF7BA
:1035500079FC013D012220213046FDF773FC640017
:1035600015F0FF05E4B2E7D1BDE870400248012242
:103570004FF48071FDF766BC0010024070B50F4E2D
:10358000B02400212046FFF7CBFF00210846FFF7BB
:10359000C7FF00211020FFF7C3FF002516F83500F4
:1035A00001210135FFF7BCFF802DF7D10134E4B2D2
:1035B000B82C06F10106E4D170BD00BF844A00209A
:1035C0000023084810B41C460022C11801F83240FC
:1035D0000132802AFAD10133082BF5D15DF8044B72
:1035E000FFF7CCBF844A0020030630B513D43F292F
:1035F00011D801F007050A4CC908C1F10701C9B289
:1036000004EBC0000123C5F1070503FA05F5435C8F
:1036100012B12B43435430BD23EA0503FAE700BF40
:10362000844A00202DE9F74F1F46A2F1200A1F4BC4
:103630009DF830B05FFA8AFA03EB0A1300931C4B33
:103640000AEB4A0A03EB8A038146884601930C463B
:103650000026B74202D103B0BDE8F08F0C2F0CBF9B
:10366000019B009B9D5D04F108035FFA83FA2B0622
:1036700058BFBBFA8BF2214604F101044CBF5A46F5
:1036800052094846E4B2FFF7AFFFA4EB08026D0011
:10369000BA42EDB207D109F101005FFA80F9C246E2
:1036A00001365446D5E7A245E1D1F9E7CE460008F8
:1036B0005A420008F7B504460D46561E012716F873
:1036C000013F0BB903B0F0BD7A2C82BF1035EDB2CB
:1036D00000243A2D03D9FFF773FF00252C460097ED
:1036E000204632780C2329460834FFF79BFFE4B2CA
:1036F000E5E7000010B5FDF7B3FB404B404C1A6FF7
:1037000022F001021A671A6F22F004021A67FDF70D
:10371000B5FB002280212046FDF794FB6420FDF7D5
:103720004BFA012220468021FDF78CFB0021AE20C0
:10373000FFF7F6FE0021D520FFF7F2FE0021502012
:10374000FFF7EEFE0021A820FFF7EAFE00213F2050
:10375000FFF7E6FE0021D320FFF7E2FE0021084636
:10376000FFF7DEFE00214020FFF7DAFE00218D206A
:10377000FFF7D6FE00211420FFF7D2FE0021202003
:10378000FFF7CEFE00210220FFF7CAFE0021A12094
:10379000FFF7C6FE0021C020FFF7C2FE0021DA209D
:1037A000FFF7BEFE00211220FFF7BAFE00218120A4
:1037B000FFF7B6FE0021EF20FFF7B2FE0021D9206F
:1037C000FFF7AEFE0021F120FFF7AAFE0021DB206B
:1037D000FFF7A6FE00213020FFF7A2FE0021A42063
:1037E000FFF79EFE0021A620FFF79AFE0021AF20E2
:1037F000FFF796FEBDE81040FFF7E2BE003802403A
:1038000000100240014B1868704700BF10000020F4
:1038100070B50D4D0D4C641BA4100026A64209D1B5
:103820000B4D0C4C00F08EFC641BA4100026A6422D
:1038300005D170BD55F8043B98470136EEE755F8C1
:10384000043B98470136F2E7FC4C0008FC4C0008AA
:10385000FC4C0008004D00080A44914200F1FF337F
:1038600000D1704710B511F8014B03F8014F914298
:10387000F9D110BD02440346934200D1704703F8CA
:10388000011BF9E70EB400B59CB01DAB0290069089
:103890006FF00041094807910491094953F8042B3E
:1038A00005910068019302A900F068F8029B0022CC
:1038B0001A701CB05DF804EB03B0704710000020D4
:1038C0000802FFFF2DE9F0478E689E4282460C46B3
:1038D00090461F4638D88A8912F4906F32D02568F6
:1038E0000969A5EB0109656905EB450505EBD5758A
:1038F00001334B446D109D4238BF1D46530531D5F1
:10390000294600F055FB064650B90C23CAF8003092
:10391000A38943F04003A3814FF0FF30BDE8F08757
:1039200021694A46FFF798FFA38923F4906343F087
:103930008003A381266165614E44A5EB09052660DD
:10394000A5603E46BE4200D93E462068324641460A
:1039500000F0A8FAA3689B1BA3602368334423608C
:103960000020DBE72A4600F097FB06460028E1D15D
:103970002169504600F0B0FAC7E700002DE9F04F8A
:1039800098468B891B069DB007460D4614460ED5FA
:103990000B6963B9402100F00BFB2860286120B956
:1039A0000C233B604FF0FF30D1E040236B610023DC
:1039B000099320238DF82930CDF80C803023DFF8CF
:1039C000A8818DF82A304FF0010923469A4613F852
:1039D000012B0AB1252AF9D1BAEB040B0BD05B46B7
:1039E000224629463846FFF76DFF013000F0AA80D5
:1039F000099A5A4409929AF80030002B00F0A280EC
:103A000000234FF0FF32CDE905230AF1010A0493A8
:103A100007938DF853301A935446052214F8011B6E
:103A20005148FCF7D5FB049AD8B9D00644BF2023EF
:103A30008DF85330110744BF2B238DF853309AF87B
:103A400000302A2B15D0079A544600204FF00A0C5C
:103A5000214611F8013B303B092B4ED9B0B10792FA
:103A600014E0A0EB080309FA03F313430493A246FE
:103A7000D2E7039B191D1B680391002BBBBF5B4260
:103A800042F0020207930793B8BF049223782E2BCB
:103A90000CD163782A2B35D1039B1A1D1B68039226
:103AA000002BB8BF4FF0FF3302340593DFF8C8A0F6
:103AB000217803225046FCF78BFB40B14023A0EB5A
:103AC0000A0003FA00F0049B03430134049314F842
:103AD000011B26488DF828100622FCF779FB0028E8
:103AE00038D0234B1BBB039B073323F0070308335A
:103AF0000393099B3344099367E70CFB02320C469E
:103B00000120A5E700230134059319464FF00A0C64
:103B1000204610F8012B303A092A03D9002BC5D0D2
:103B20000591C3E70CFB012104460123F0E703AB39
:103B300000932A460F4B04A93846AFF30080421C7D
:103B40000646D6D1AB895B063FF52CAF09981DB070
:103B5000BDE8F08F03AB00932A46064B04A9384614
:103B600000F07AF8EBE700BFBE4C0008C84C000834
:103B700000000000C5380008C44C00082DE9F047DB
:103B8000164699468A680B69DDF820809342B8BFD3
:103B90001346336091F8432007460C460AB10133BF
:103BA00033602368990642BF336802333360256867
:103BB00015F0060506D104F1190AE36832689B1A6C
:103BC000AB4226DC94F84320131E226818BF012361
:103BD00092062BD404F1430249463846C0470130CF
:103BE0001ED02368E568326803F00603042B08BF83
:103BF000AD1AA36822690CBF25EAE575002593423A
:103C0000C4BF9B1AED1800261A34B5421AD1002001
:103C100008E00123524649463846C047013003D1E7
:103C20004FF0FF30BDE8F0870135C6E7E1185A1CB8
:103C3000302081F84300224494F8451082F8431064
:103C40000233C7E70123224649463846C0470130C0
:103C5000E6D00136D9E700002DE9FF470F7E0C9D25
:103C6000782F914680460C469A4601F1430207D8C8
:103C7000622F0AD8002F00F0D880582F00F0A380C0
:103C800004F1420584F842703AE0A7F16303152B72
:103C9000F6D801A151F823F0F13C0008053D0008D9
:103CA000813C0008813C0008813C0008813C000800
:103CB000053D0008813C0008813C0008813C00086B
:103CC000813C0008113E0008353D0008F33D000826
:103CD000813C0008813C0008333E0008813C00081C
:103CE000353D0008813C0008813C0008FB3D000890
:103CF0002B681A1D1B682A6004F1420584F84230C3
:103D00000123A3E020682968060601F104030AD50F
:103D10000E682B60002E03DA2D23764284F84330A0
:103D20005E480A2319E00E682B6010F0400F18BFA0
:103D300036B2EFE72B682068191D2960010601D50E
:103D40001E6802E04606FBD51E8854486F2F0CBF44
:103D500008230A23002184F843106568A560002D1C
:103D6000A2BF216821F0040121600EB9002D4DD0C1
:103D70001546B6FBF3F103FB1167C75D05F8017D3E
:103D80003746BB420E46F4D9082B0BD12368DE0719
:103D900008D5236961689942DEBF302305F8013CEC
:103DA00005F1FF35521B2261CDF800A04B4603AA56
:103DB00021464046FFF7E2FE01304CD14FF0FF3084
:103DC00004B0BDE8F087354881F84570296823685C
:103DD00051F8046B29601D0614D5DF0744BF43F07A
:103DE000200323601EB9236823F0200323601023DF
:103DF000B0E7236843F0200323607823284884F841
:103E00004530E3E7590648BFB6B2E6E71546BBE7DB
:103E10002B6826686169181D286035061B6801D566
:103E2000196002E07006FBD5198000232361154656
:103E3000BAE72B681A1D2A601D68626800212846AF
:103E4000FCF7C6F908B1401B60606368236100237A
:103E500084F84330A8E723692A4649464046D047BC
:103E60000130ABD023689B0713D4E068039B9842D2
:103E7000B8BF1846A4E70123324649464046D0471A
:103E800001309BD00135E36803995B1AAB42F2DC49
:103E9000EBE7002504F11906F5E700BFCF4C000859
:103EA000E04C0008884210B501EB020402D98442BC
:103EB000234607D8431EA14208D011F8012B03F86E
:103EC000012FF8E7024401468A4200D110BD13F8E1
:103ED000014D02F8014DF7E737B5002944D051F8FC
:103EE000043C0190002BA1F10404B8BFE41800F0D9
:103EF00013F91E4A0198136833B96360146003B064
:103F0000BDE8304000F00EB9A34208D92568611918
:103F10008B4201BF19685B6849192160EDE71A46B9
:103F20005B680BB1A342FAD911685518A5420BD1B1
:103F3000246821445418A3421160E0D11C685B68D6
:103F4000536021441160DAE702D90C230360D6E7FD
:103F5000256861198B4204BF19685B68636004BF00
:103F6000491921605460CAE703B030BD844E002077
:103F700070B50E4E0C463168054611B900F0BCF81C
:103F800030602146284600F0B7F8431C0AD0C41C14
:103F900024F00304A04207D0211A284600F0ACF810
:103FA000013001D14FF0FF34204670BD884E002013
:103FB0002DE9F041CD1C25F0030508350C2D38BF47
:103FC0000C25002D074601DBA94205D90C233B60D7
:103FD00000263046BDE8F0812E4E00F09DF8336893
:103FE0001C4634BB29463846FFF7C2FF431C044633
:103FF0004DD134682646002E40D1236831463846DC
:1040000004EB030800F078F880453AD121680335C5
:104010006D1A25F0030508350C2D38BF0C252946EF
:104020003846FFF7A5FF01302BD023682B442360CF
:104030000EE02268521B1ED40B2A16D96119A34226
:10404000256018BF5960636808BF316062514B60DA
:10405000384604F10B0600F065F826F00706231D2C
:10406000F21AB6D09B1BA350B3E76268A3420CBF01
:1040700032605A60ECE723466468B2E734467668FB
:10408000B9E70C233B60384600F04CF8A1E7256007
:10409000DEE700BF844E00202DE9F0418046144643
:1040A0000E4621B9BDE8F0411146FFF781BF2AB99C
:1040B000FFF712FF25462846BDE8F08100F038F8EA
:1040C0008442074602D8B4EB500F12D8214640462E
:1040D000FFF76EFF05460028EDD0BC422246314670
:1040E00028BF3A46FFF7B8FB31464046FFF7F4FEDB
:1040F000E1E73546DFE7000038B5064D002304460A
:1041000008462B60FCF7B4FC431C02D12B6803B1BA
:10411000236038BD8C4E0020014800F011B800BF6C
:10412000904E0020014800F00CB800BF904E0020D7
:1041300051F8043C181F002BBCBF0B58C018704727
:1041400070477047F8B500BFF8BC08BC9E46704782
:0C415000F8B500BFF8BC08BC9E467047E4
:10415C004920616D20616C697665000000000000EB
:10416C00000000004D6F746F723A202535640065B5
:10417C006E636F6465725461736B006D6F746F72F4
:10418C005461736B0073686F775461736B00646573
:10419C006661756C745461736B0000009A41000881
:1041AC000000000000000000000000000000000003
:1041BC0000020000180000000000000000000000D9
:1041CC007B4100080000000000000000000000001F
:1041DC0000000000000200000800000000000000C9
:1041EC0000000000874100080000000000000000F3
:1041FC0000000000000000000002000008000000A9
:10420C0000000000000000009141000800000000C8
:10421C000000000000000000000000000002000090
:10422C00080000000000000000000000000000007A
:10423C0000000000010203040607080949444C452C
:10424C0000546D725100546D72205376630000005F
:10425C0000000000000000000000000000003F40D3
:10426C000000000000000000300040003000400062
:10427C00000009000BC03D000BC03D00090018C038
:10428C0024407FE0224031800000180024C01B0035
:10429C000D803240018003801C4027401C80074069
:1042AC000040100060000000000000000000000052
:1042BC00000000001F8020404020000040202040D3
:1042CC001F8000000000090006001F800600090086
:1042DC000000040004003F800400040000000010F3
:1042EC000060000000000000000004000400040056
:1042FC00040004000000000000400000000000006A
:10430C000000002001C006003800400000001F80A3
:10431C002040204020401F800000000010403FC083
:10432C0000400000000018C02140224024401840EA
:10433C00000010802040244024401B80000002001C
:10434C000D0011003FC0014000003C80244024407F
:10435C002440238000001F802440244034400380EC
:10436C0000003000200027C03800200000001B8017
:10437C002440244024401B8000001C0022C022400A
:10438C0022401F80000000000000084000000000D8
:10439C0000000000000004600000000000000000AD
:1043AC0004000A00110020804040090009000900A7
:1043BC0009000900000000004040208011000A00A4
:1043CC0004001800200023402400180000001F8067
:1043DC002040274029401F400000004007C0390002
:1043EC000F0001C0004020403FC0244024401B80EF
:1043FC0000001F80204020402040308000002040E2
:10440C003FC0204020401F80000020403FC024407F
:10441C002E4030C0000020403FC024402E00300011
:10442C0000000F001080204022403380020020400A
:10443C003FC0040004003FC02040204020403FC04B
:10444C002040204000000060202020203FC02000A1
:10445C00200020403FC024400B0030C020402040B2
:10446C003FC020400040004000C03FC03C0003C0A3
:10447C003C003FC0000020403FC00C4023003FC028
:10448C0020001F802040204020401F800000204042
:10449C003FC024402400180000001F802140214010
:1044AC0020E01FA0000020403FC02440260019C07F
:1044BC00004018C0244024402240318000003000CD
:1044CC0020403FC020403000000020003F800040D2
:1044DC0000403F80200020003E0001C00700380053
:1044EC002000380007C03C0007C038000000204006
:1044FC0039C0060039C0204000002000384007C0F9
:10450C00384020000000304021C02640384020C0F8
:10451C000000000000007FE0402040200000000070
:10452C0070000C0003800040000000004020402080
:10453C007FE0000000000000200040002000000090
:10454C0000000010001000100010001000100000FF
:10455C000000400000000000000000000280054048
:10456C00054003C0004020003FC0044004400380CD
:10457C0000000000038004400440064000000000DE
:10458C000380044024403FC00040000003800540ED
:10459C00054003400000000004401FC0244024409C
:1045AC002000000002E00550055006500420204079
:1045BC003FC00440040003C000400000044027C07A
:1045CC0000400000000000100010041027E0000064
:1045DC00000020403FC00140070004C004402040C0
:1045EC0020403FC000400040000007C0040007C04E
:1045FC00040003C00000044007C00440040003C0D2
:10460C0000400000038004400440038000000410BC
:10461C0007F00450044003800000000003800440B5
:10462C00045007F00010044007C0024004000400CE
:10463C000000000006400540054004C000000000DA
:10464C0004001F800440004000000400078000406C
:10465C00044007C000400400070004C001800600AD
:10466C000400060001C0070001C006000000044061
:10467C0006C0010006C0044000000410071004E04E
:10468C000180060004000000044005C00640044000
:10469C0000000000000004007BE04020000000004F
:1046AC0000000000FFF000000000000040207BE054
:1046BC0004000000000040008000400020002000AA
:1046CC00400000000000000000000000000000009E
:1046DC0000000000000000001FCC000C00000000D7
:1046EC00000000000800300060000800300060008E
:1046FC000000022003FC1E20022003FC1E200220CE
:10470C00000000000E1811043FFF10840C7800000C
:10471C0000000F0010840F3800C007781884007850
:10472C00000000780F8410C411240E9800E400845B
:10473C000008080068007000000000000000000085
:10474C00000000000000000007E0181820044002E0
:10475C000000000040022004181807E000000000D0
:10476C0000000240024001800FF001800240024034
:10477C0000000080008000800FF800800080008026
:10478C0000000001000D000E000000000000000001
:10479C00000000000080008000800080008000800D
:1047AC0000800000000C000C000000000000000065
:1047BC0000000000000600180060018006001800D0
:1047CC002000000007F0080810041004080807F087
:1047DC0000000000080408041FFC00040004000092
:1047EC00000000000E0C10141024104411840E0C48
:1047FC00000000000C1810041104110412880C7035
:10480C000000000000E00320042408241FFC002406
:10481C00000000001F9810841104110410881070FF
:10482C000000000007F008881104110418880070BB
:10483C00000000001C00100010FC13001C001000F5
:10484C00000000000E3811441084108411440E38FE
:10485C00000000000700088C10441044088807F082
:10486C000000000000000000030C030C000000001E
:10487C000000000000000001010600000000000024
:10488C000000000000800140022004100808100401
:10489C00000002200220022002200220022002201E
:1048AC0000000000100408080410022001400080E1
:1048BC00000000000E001200100C106C10800F0095
:1048CC00000003E00C1813E4142417C4082807D0C4
:1048DC0000000004003C03C41C40074000E4001C22
:1048EC00000410041FFC1104110411040E88007044
:1048FC00000003E00C1810041004100410081C1025
:10490C00000010041FFC100410041004080807F029
:10491C00000010041FFC1104110417C41004081823
:10492C00000010041FFC1104110017C01000080037
:10493C00000003E00C181004100410441C78004014
:10494C00000010041FFC10840080008010841FFCE9
:10495C0010040000100410041FFC100410040000CC
:10496C00000000030001100110011FFE10001000D8
:10497C00000010041FFC110403801464181C1004A4
:10498C00000010041FFC1004000400040004000CC0
:10499C00000010041FFC1F0000FC1F001FFC100473
:1049AC00000010041FFC0C04030000E010181FFC96
:1049BC00100007F00808100410041004080807F091
:1049CC00000010041FFC10841080108010800F0059
:1049DC00000007F0081810241024101C080A07F215
:1049EC00000010041FFC1104110011C011300E0C3A
:1049FC00000400000E1C11041084108410441C3898
:104A0C0000001800100010041FFC10041000180007
:104A1C00000010001FF810040004000410041FF81C
:104A2C00100010001E0011E0001C007013801C0010
:104A3C0010001FC0103C00E01F0000E0103C1FC025
:104A4C0000001004180C163401C001C01634180CE8
:104A5C00100410001C00130400FC13041C001000B4
:104A6C0000000804101C1064108413041C0410189B
:104A7C0000000000000000007FFE400240024002E7
:104A8C000000000030000C0003800060001C0003DC
:104A9C00000000004002400240027FFE00000000C7
:104AAC0000000000000020004000400040002000FA
:104ABC0000000001000100010001000100010001E3
:104ACC000001000040004000200000000000000039
:104ADC00000000000098012401440144014400FC42
:104AEC00000410001FFC0088010401040088007001
:104AFC00000000000070008801040104010400881B
:104B0C0000000000007000880104010411081FFC63
:104B1C000004000000F8014401440144014400C8B1
:104B2C0000000000010401040FFC11041104110029
:104B3C001800000000D601290129012901C901062C
:104B4C00000010041FFC008401000100010400FCA3
:104B5C00000400000104190419FC00040004000006
:104B6C0000000000000300010101190119FE000002
:104B7C00000010041FFC0024004001B4010C0104CF
:104B8C0000000000100410041FFC000400040000CE
:104B9C000000010401FC0104010001FC01040100FE
:104BAC0000FC010401FC008401000100010400FC74
:104BBC000004000000F8010401040104010400F8E1
:104BCC000000010101FF0085010401040088007050
:104BDC00000000000070008801040104010501FFC1
:104BEC0000010104010401FC0084010401000180A6
:104BFC000000000000CC01240124012401240198B0
:104C0C00000000000100010007F80104010400008D
:104C1C000000010001F8000400040004010801FC7C
:104C2C000004010001800170000C00100160018083
:104C3C00010001F0010C003001C00030010C01F04A
:104C4C00010000000104018C00740170018C01044E
:104C5C000000010101810171000E0018016001804A
:104C6C00010000000184010C013401440184010C99
:104C7C000000000000000000000001003EFC4002AB
:104C8C0040020000000000000000FFFF00000000D8
:104C9C0000000000400240023EFC01000000000049
:104CAC0000000000600080008000400040002000F8
:104CBC002000232D302B2000686C4C006566674566
:104CCC004647003031323334353637383941424378
:104CDC004445460030313233343536373839616229
:084CEC0063646566000000002E
:084CF400ACB5FF7F01000000D8
:044CFC00B5010008F6
:044D00009101000815
:104D04000024F4000100000010000000AAAAAAAACE
:104D1400140000200000000000000000000000005B
:104D2400000000000000000000000000000000007F
:104D3400000000000000000000000000000000006F
:104D4400000000000000000000000000000000005F
:104D5400000000000000000000000000000000004F
:104D6400000000000000000000000000000000003F
:044D7400000000003B
:0400000508000AC520
:00000001FF
